{
  "contractName": "ArrayLib",
  "abi": [
    {
      "constant": false,
      "inputs": [
        {
          "name": "a",
          "type": "address"
        },
        {
          "name": "arry",
          "type": "address[] storage"
        }
      ],
      "name": "findAddress",
      "outputs": [
        {
          "name": "",
          "type": "int256"
        }
      ],
      "payable": false,
      "stateMutability": "nonpayable",
      "type": "function"
    },
    {
      "constant": false,
      "inputs": [
        {
          "name": "i",
          "type": "uint256"
        },
        {
          "name": "arry",
          "type": "address[] storage"
        }
      ],
      "name": "removeAddress",
      "outputs": [],
      "payable": false,
      "stateMutability": "nonpayable",
      "type": "function"
    }
  ],
  "bytecode": "0x610326610030600b82828239805160001a6073146000811461002057610022565bfe5b5030600052607381538281f3007300000000000000000000000000000000000000003014608060405260043610610063576000357c0100000000000000000000000000000000000000000000000000000000900463ffffffff168063c6f3152114610068578063f14717c71461009f575b600080fd5b81801561007457600080fd5b5061009d6004803603810190808035906020019092919080359060200190929190505050610100565b005b8180156100ab57600080fd5b506100ea600480360381019080803573ffffffffffffffffffffffffffffffffffffffff169060200190929190803590602001909291905050506101e9565b6040518082815260200191505060405180910390f35b600060018280549050039050818181548110151561011a57fe5b9060005260206000200160009054906101000a900473ffffffffffffffffffffffffffffffffffffffff16828481548110151561015357fe5b9060005260206000200160006101000a81548173ffffffffffffffffffffffffffffffffffffffff021916908373ffffffffffffffffffffffffffffffffffffffff16021790555081818154811015156101a957fe5b9060005260206000200160006101000a81549073ffffffffffffffffffffffffffffffffffffffff02191690558082816101e391906102a9565b50505050565b600080600090505b828054905081101561027e578373ffffffffffffffffffffffffffffffffffffffff16838281548110151561022257fe5b9060005260206000200160009054906101000a900473ffffffffffffffffffffffffffffffffffffffff1673ffffffffffffffffffffffffffffffffffffffff161415610271578091506102a2565b80806001019150506101f1565b7fffffffffffffffffffffffffffffffffffffffffffffffffffffffffffffffff91505b5092915050565b8154818355818111156102d0578183600052602060002091820191016102cf91906102d5565b5b505050565b6102f791905b808211156102f35760008160009055506001016102db565b5090565b905600a165627a7a72305820a97ee57e68cab53e213092d18b0c42a57f0bc6baf72ebce1a1636c3f5c34b7ba0029",
  "source": "// mainnet: 0x5bfa4582b0c48cb375b9e8322b57ac025965c148\n// ropsten: 0x957eb298a72167367fa210fc1aa3faba1d2b629c\npragma solidity ^0.4.8;\nlibrary ArrayLib{\n  function findAddress(address a, address[] storage arry) returns (int){\n    for (uint i = 0 ; i < arry.length ; i++){\n      if(arry[i] == a){return int(i);}\n    }\n    return -1;\n  }\n  function removeAddress(uint i, address[] storage arry){\n    uint lengthMinusOne = arry.length - 1;\n    arry[i] = arry[lengthMinusOne];\n    delete arry[lengthMinusOne];\n    arry.length = lengthMinusOne;\n  }\n}\n",
  "sourcePath": "/Users/xyli/Code/JavaScript/uport/uport-test/uport-contracts/contracts/libs/ArrayLib.sol",
  "compiler": {
    "name": "solc",
    "version": "0.4.24+commit.e67f0147.Emscripten.clang"
  },
  "schemaVersion": "2.0.1",
  "updatedAt": "2018-10-10T10:09:28.662Z"
}