{
  "contractName": "IdentityFactory",
  "abi": [
    {
      "constant": true,
      "inputs": [
        {
          "name": "",
          "type": "address"
        }
      ],
      "name": "senderToProxy",
      "outputs": [
        {
          "name": "",
          "type": "address"
        }
      ],
      "payable": false,
      "stateMutability": "view",
      "type": "function"
    },
    {
      "anonymous": false,
      "inputs": [
        {
          "indexed": true,
          "name": "userKey",
          "type": "address"
        },
        {
          "indexed": false,
          "name": "proxy",
          "type": "address"
        },
        {
          "indexed": false,
          "name": "controller",
          "type": "address"
        },
        {
          "indexed": false,
          "name": "recoveryQuorum",
          "type": "address"
        }
      ],
      "name": "IdentityCreated",
      "type": "event"
    },
    {
      "constant": false,
      "inputs": [
        {
          "name": "userKey",
          "type": "address"
        },
        {
          "name": "delegates",
          "type": "address[]"
        },
        {
          "name": "longTimeLock",
          "type": "uint256"
        },
        {
          "name": "shortTimeLock",
          "type": "uint256"
        }
      ],
      "name": "CreateProxyWithControllerAndRecovery",
      "outputs": [],
      "payable": false,
      "stateMutability": "nonpayable",
      "type": "function"
    }
  ],
  "bytecode": "0x608060405234801561001057600080fd5b50613a43806100206000396000f30060806040526004361061004c576000357c0100000000000000000000000000000000000000000000000000000000900463ffffffff16806394d9cf8f14610051578063e90bcb32146100eb575b600080fd5b34801561005d57600080fd5b506100e9600480360381019080803573ffffffffffffffffffffffffffffffffffffffff16906020019092919080359060200190820180359060200190808060200260200160405190810160405280939291908181526020018383602002808284378201915050505050509192919290803590602001909291908035906020019092919050505061016e565b005b3480156100f757600080fd5b5061012c600480360381019080803573ffffffffffffffffffffffffffffffffffffffff1690602001909291905050506105b1565b604051808273ffffffffffffffffffffffffffffffffffffffff1673ffffffffffffffffffffffffffffffffffffffff16815260200191505060405180910390f35b600080600061017b6105e4565b604051809103906000f080158015610197573d6000803e3d6000fd5b509250828786866101a66105f4565b808573ffffffffffffffffffffffffffffffffffffffff1673ffffffffffffffffffffffffffffffffffffffff1681526020018473ffffffffffffffffffffffffffffffffffffffff1673ffffffffffffffffffffffffffffffffffffffff168152602001838152602001828152602001945050505050604051809103906000f080158015610239573d6000803e3d6000fd5b5091508273ffffffffffffffffffffffffffffffffffffffff16631a695230836040518263ffffffff167c0100000000000000000000000000000000000000000000000000000000028152600401808273ffffffffffffffffffffffffffffffffffffffff1673ffffffffffffffffffffffffffffffffffffffff168152602001915050600060405180830381600087803b1580156102d757600080fd5b505af11580156102eb573d6000803e3d6000fd5b5050505081866102f9610604565b808373ffffffffffffffffffffffffffffffffffffffff1673ffffffffffffffffffffffffffffffffffffffff16815260200180602001828103825283818151815260200191508051906020019060200280838360005b8381101561036b578082015181840152602081019050610350565b505050509050019350505050604051809103906000f080158015610393573d6000803e3d6000fd5b5090508173ffffffffffffffffffffffffffffffffffffffff1663a08df770826040518263ffffffff167c0100000000000000000000000000000000000000000000000000000000028152600401808273ffffffffffffffffffffffffffffffffffffffff1673ffffffffffffffffffffffffffffffffffffffff168152602001915050600060405180830381600087803b15801561043157600080fd5b505af1158015610445573d6000803e3d6000fd5b505050508673ffffffffffffffffffffffffffffffffffffffff167fc36800ebd6079fdafc3a7100d0d1172815751804a6d1b7eb365b85f6c9c80e61848484604051808473ffffffffffffffffffffffffffffffffffffffff1673ffffffffffffffffffffffffffffffffffffffff1681526020018373ffffffffffffffffffffffffffffffffffffffff1673ffffffffffffffffffffffffffffffffffffffff1681526020018273ffffffffffffffffffffffffffffffffffffffff1673ffffffffffffffffffffffffffffffffffffffff168152602001935050505060405180910390a2826000803373ffffffffffffffffffffffffffffffffffffffff1673ffffffffffffffffffffffffffffffffffffffff16815260200190815260200160002060006101000a81548173ffffffffffffffffffffffffffffffffffffffff021916908373ffffffffffffffffffffffffffffffffffffffff16021790555050505050505050565b60006020528060005260406000206000915054906101000a900473ffffffffffffffffffffffffffffffffffffffff1681565b6040516104eb8061061583390190565b60405161136080610b0083390190565b604051611bb880611e608339019056006080604052336000806101000a81548173ffffffffffffffffffffffffffffffffffffffff021916908373ffffffffffffffffffffffffffffffffffffffff160217905550610498806100536000396000f300608060405260043610610062576000357c0100000000000000000000000000000000000000000000000000000000900463ffffffff1680631a695230146100b25780632f54bf6e146100f55780638da5cb5b14610150578063d7f31eb9146101a7575b3373ffffffffffffffffffffffffffffffffffffffff167f88a5966d370b9919b20f3e2c13ff65706f196a4e32cc2c12bf57088f88525874346040518082815260200191505060405180910390a2005b3480156100be57600080fd5b506100f3600480360381019080803573ffffffffffffffffffffffffffffffffffffffff16906020019092919050505061023a565b005b34801561010157600080fd5b50610136600480360381019080803573ffffffffffffffffffffffffffffffffffffffff16906020019092919050505061028c565b604051808215151515815260200191505060405180910390f35b34801561015c57600080fd5b506101656102e5565b604051808273ffffffffffffffffffffffffffffffffffffffff1673ffffffffffffffffffffffffffffffffffffffff16815260200191505060405180910390f35b3480156101b357600080fd5b50610238600480360381019080803573ffffffffffffffffffffffffffffffffffffffff16906020019092919080359060200190929190803590602001908201803590602001908080601f016020809104026020016040519081016040528093929190818152602001838380828437820191505050505050919291929050505061030a565b005b6102433361028c565b1561028957806000806101000a81548173ffffffffffffffffffffffffffffffffffffffff021916908373ffffffffffffffffffffffffffffffffffffffff1602179055505b50565b60008060009054906101000a900473ffffffffffffffffffffffffffffffffffffffff1673ffffffffffffffffffffffffffffffffffffffff168273ffffffffffffffffffffffffffffffffffffffff16149050919050565b6000809054906101000a900473ffffffffffffffffffffffffffffffffffffffff1681565b6103133361028c565b15610467578273ffffffffffffffffffffffffffffffffffffffff16828260405180828051906020019080838360005b8381101561035e578082015181840152602081019050610343565b50505050905090810190601f16801561038b5780820380516001836020036101000a031916815260200191505b5091505060006040518083038185875af19250505015156103ab57600080fd5b8273ffffffffffffffffffffffffffffffffffffffff167fc1de93dfa06362c6a616cde73ec17d116c0d588dd1df70f27f91b500de207c4183836040518083815260200180602001828103825283818151815260200191508051906020019080838360005b8381101561042b578082015181840152602081019050610410565b50505050905090810190601f1680156104585780820380516001836020036101000a031916815260200191505b50935050505060405180910390a25b5050505600a165627a7a72305820d75f46c67e2c36937c0317f7ecf557ce7206ad12f2db3d4be1f70af3164237490029608060405234801561001057600080fd5b5060405160808061136083398101806040528101908080519060200190929190805190602001909291908051906020019092919080519060200190929190505050600160008190555083600160006101000a81548173ffffffffffffffffffffffffffffffffffffffff021916908373ffffffffffffffffffffffffffffffffffffffff16021790555082600260006101000a81548173ffffffffffffffffffffffffffffffffffffffff021916908373ffffffffffffffffffffffffffffffffffffffff16021790555080600a8190555081600b8190555033600560006101000a81548173ffffffffffffffffffffffffffffffffffffffff021916908373ffffffffffffffffffffffffffffffffffffffff160217905550505050506112238061013d6000396000f30060806040526004361061011d576000357c0100000000000000000000000000000000000000000000000000000000900463ffffffff16806309b8f77a146101225780631c1c2289146101795780631de0e877146101d05780631ec9f7b5146101fb57806334c7dcf8146102265780634893ed5b1461027d57806354fd4d50146102a85780637a5d5345146102d35780637ab0b9981461031657806384191f62146103595780638ac0eef91461037057806397905a8814610387578063a08df770146103de578063c998e9dd14610421578063cbd2c73b14610464578063d1c484f6146104a7578063d233fc0b146104d2578063d7f31eb9146104e9578063ec5568891461057c578063f60edb0e146105d3578063f66c66911461062a575b600080fd5b34801561012e57600080fd5b50610137610655565b604051808273ffffffffffffffffffffffffffffffffffffffff1673ffffffffffffffffffffffffffffffffffffffff16815260200191505060405180910390f35b34801561018557600080fd5b5061018e61067b565b604051808273ffffffffffffffffffffffffffffffffffffffff1673ffffffffffffffffffffffffffffffffffffffff16815260200191505060405180910390f35b3480156101dc57600080fd5b506101e56106a1565b6040518082815260200191505060405180910390f35b34801561020757600080fd5b506102106106a7565b6040518082815260200191505060405180910390f35b34801561023257600080fd5b5061023b6106ad565b604051808273ffffffffffffffffffffffffffffffffffffffff1673ffffffffffffffffffffffffffffffffffffffff16815260200191505060405180910390f35b34801561028957600080fd5b506102926106d3565b6040518082815260200191505060405180910390f35b3480156102b457600080fd5b506102bd6106d9565b6040518082815260200191505060405180910390f35b3480156102df57600080fd5b50610314600480360381019080803573ffffffffffffffffffffffffffffffffffffffff1690602001909291905050506106df565b005b34801561032257600080fd5b50610357600480360381019080803573ffffffffffffffffffffffffffffffffffffffff169060200190929190505050610821565b005b34801561036557600080fd5b5061036e610963565b005b34801561037c57600080fd5b50610385610ae6565b005b34801561039357600080fd5b5061039c610c5c565b604051808273ffffffffffffffffffffffffffffffffffffffff1673ffffffffffffffffffffffffffffffffffffffff16815260200191505060405180910390f35b3480156103ea57600080fd5b5061041f600480360381019080803573ffffffffffffffffffffffffffffffffffffffff169060200190929190505050610c82565b005b34801561042d57600080fd5b50610462600480360381019080803573ffffffffffffffffffffffffffffffffffffffff169060200190929190505050610d1d565b005b34801561047057600080fd5b506104a5600480360381019080803573ffffffffffffffffffffffffffffffffffffffff169060200190929190505050610ddd565b005b3480156104b357600080fd5b506104bc610f1f565b6040518082815260200191505060405180910390f35b3480156104de57600080fd5b506104e7610f25565b005b3480156104f557600080fd5b5061057a600480360381019080803573ffffffffffffffffffffffffffffffffffffffff16906020019092919080359060200190929190803590602001908201803590602001908080601f0160208091040260200160405190810160405280939291908181526020018383808284378201915050505050509192919290505050610fff565b005b34801561058857600080fd5b506105916111a5565b604051808273ffffffffffffffffffffffffffffffffffffffff1673ffffffffffffffffffffffffffffffffffffffff16815260200191505060405180910390f35b3480156105df57600080fd5b506105e86111cb565b604051808273ffffffffffffffffffffffffffffffffffffffff1673ffffffffffffffffffffffffffffffffffffffff16815260200191505060405180910390f35b34801561063657600080fd5b5061063f6111f1565b6040518082815260200191505060405180910390f35b600660009054906101000a900473ffffffffffffffffffffffffffffffffffffffff1681565b600260009054906101000a900473ffffffffffffffffffffffffffffffffffffffff1681565b60095481565b600b5481565b600360009054906101000a900473ffffffffffffffffffffffffffffffffffffffff1681565b60045481565b60005481565b600260009054906101000a900473ffffffffffffffffffffffffffffffffffffffff1673ffffffffffffffffffffffffffffffffffffffff163373ffffffffffffffffffffffffffffffffffffffff16141561081e57600b54420160098190555080600860006101000a81548173ffffffffffffffffffffffffffffffffffffffff021916908373ffffffffffffffffffffffffffffffffffffffff1602179055507fea8e84a162c4602ea0c61acf85fa1242db8ce550e7a448d613e3c7dff2f067933360405180806020018373ffffffffffffffffffffffffffffffffffffffff1673ffffffffffffffffffffffffffffffffffffffff168152602001828103825260148152602001807f7369676e436f6e74726f6c6c65724368616e67650000000000000000000000008152506020019250505060405180910390a15b50565b600260009054906101000a900473ffffffffffffffffffffffffffffffffffffffff1673ffffffffffffffffffffffffffffffffffffffff163373ffffffffffffffffffffffffffffffffffffffff16141561096057600b54420160078190555080600660006101000a81548173ffffffffffffffffffffffffffffffffffffffff021916908373ffffffffffffffffffffffffffffffffffffffff1602179055507fea8e84a162c4602ea0c61acf85fa1242db8ce550e7a448d613e3c7dff2f067933360405180806020018373ffffffffffffffffffffffffffffffffffffffff1673ffffffffffffffffffffffffffffffffffffffff168152602001828103825260128152602001807f7369676e5265636f766572794368616e676500000000000000000000000000008152506020019250505060405180910390a15b50565b426009541080156109ad57506000600860009054906101000a900473ffffffffffffffffffffffffffffffffffffffff1673ffffffffffffffffffffffffffffffffffffffff1614155b15610ae457600160009054906101000a900473ffffffffffffffffffffffffffffffffffffffff1673ffffffffffffffffffffffffffffffffffffffff16631a695230600860009054906101000a900473ffffffffffffffffffffffffffffffffffffffff166040518263ffffffff167c0100000000000000000000000000000000000000000000000000000000028152600401808273ffffffffffffffffffffffffffffffffffffffff1673ffffffffffffffffffffffffffffffffffffffff168152602001915050600060405180830381600087803b158015610a9157600080fd5b505af1158015610aa5573d6000803e3d6000fd5b50505050600860009054906101000a900473ffffffffffffffffffffffffffffffffffffffff1673ffffffffffffffffffffffffffffffffffffffff16ff5b565b42600454108015610b3057506000600360009054906101000a900473ffffffffffffffffffffffffffffffffffffffff1673ffffffffffffffffffffffffffffffffffffffff1614155b15610c5a57600360009054906101000a900473ffffffffffffffffffffffffffffffffffffffff16600260006101000a81548173ffffffffffffffffffffffffffffffffffffffff021916908373ffffffffffffffffffffffffffffffffffffffff160217905550600360006101000a81549073ffffffffffffffffffffffffffffffffffffffff02191690557fea8e84a162c4602ea0c61acf85fa1242db8ce550e7a448d613e3c7dff2f067933360405180806020018373ffffffffffffffffffffffffffffffffffffffff1673ffffffffffffffffffffffffffffffffffffffff1681526020018281038252600d8152602001807f6368616e6765557365724b6579000000000000000000000000000000000000008152506020019250505060405180910390a15b565b600560009054906101000a900473ffffffffffffffffffffffffffffffffffffffff1681565b600560009054906101000a900473ffffffffffffffffffffffffffffffffffffffff1673ffffffffffffffffffffffffffffffffffffffff163373ffffffffffffffffffffffffffffffffffffffff161415610d1a5780600560006101000a81548173ffffffffffffffffffffffffffffffffffffffff021916908373ffffffffffffffffffffffffffffffffffffffff1602179055505b50565b600560009054906101000a900473ffffffffffffffffffffffffffffffffffffffff1673ffffffffffffffffffffffffffffffffffffffff163373ffffffffffffffffffffffffffffffffffffffff161415610dda57600360006101000a81549073ffffffffffffffffffffffffffffffffffffffff021916905580600260006101000a81548173ffffffffffffffffffffffffffffffffffffffff021916908373ffffffffffffffffffffffffffffffffffffffff1602179055505b50565b600260009054906101000a900473ffffffffffffffffffffffffffffffffffffffff1673ffffffffffffffffffffffffffffffffffffffff163373ffffffffffffffffffffffffffffffffffffffff161415610f1c57600a54420160048190555080600360006101000a81548173ffffffffffffffffffffffffffffffffffffffff021916908373ffffffffffffffffffffffffffffffffffffffff1602179055507fea8e84a162c4602ea0c61acf85fa1242db8ce550e7a448d613e3c7dff2f067933360405180806020018373ffffffffffffffffffffffffffffffffffffffff1673ffffffffffffffffffffffffffffffffffffffff168152602001828103825260118152602001807f7369676e557365724b65794368616e67650000000000000000000000000000008152506020019250505060405180910390a15b50565b60075481565b42600754108015610f6f57506000600660009054906101000a900473ffffffffffffffffffffffffffffffffffffffff1673ffffffffffffffffffffffffffffffffffffffff1614155b15610ffd57600660009054906101000a900473ffffffffffffffffffffffffffffffffffffffff16600560006101000a81548173ffffffffffffffffffffffffffffffffffffffff021916908373ffffffffffffffffffffffffffffffffffffffff160217905550600660006101000a81549073ffffffffffffffffffffffffffffffffffffffff02191690555b565b600260009054906101000a900473ffffffffffffffffffffffffffffffffffffffff1673ffffffffffffffffffffffffffffffffffffffff163373ffffffffffffffffffffffffffffffffffffffff1614156111a057600160009054906101000a900473ffffffffffffffffffffffffffffffffffffffff1673ffffffffffffffffffffffffffffffffffffffff1663d7f31eb98484846040518463ffffffff167c0100000000000000000000000000000000000000000000000000000000028152600401808473ffffffffffffffffffffffffffffffffffffffff1673ffffffffffffffffffffffffffffffffffffffff16815260200183815260200180602001828103825283818151815260200191508051906020019080838360005b8381101561113957808201518184015260208101905061111e565b50505050905090810190601f1680156111665780820380516001836020036101000a031916815260200191505b50945050505050600060405180830381600087803b15801561118757600080fd5b505af115801561119b573d6000803e3d6000fd5b505050505b505050565b600160009054906101000a900473ffffffffffffffffffffffffffffffffffffffff1681565b600860009054906101000a900473ffffffffffffffffffffffffffffffffffffffff1681565b600a54815600a165627a7a723058204a8bf15caa6b0fd6d5523cb50a40db9d0cbda709f0b548d8a902fadf5ed2dd220029608060405234801561001057600080fd5b50604051611bb8380380611bb883398101806040528101908080519060200190929190805182019291905050506000826000806101000a81548173ffffffffffffffffffffffffffffffffffffffff021916908373ffffffffffffffffffffffffffffffffffffffff160217905550600090505b8151811015610205576001828281518110151561009d57fe5b9060200190602002015190806001815401808255809150509060018203906000526020600020016000909192909190916101000a81548173ffffffffffffffffffffffffffffffffffffffff021916908373ffffffffffffffffffffffffffffffffffffffff16021790555050606060405190810160405280651cae8c13e000815260200160008152602001600073ffffffffffffffffffffffffffffffffffffffff1681525060026000848481518110151561015657fe5b9060200190602002015173ffffffffffffffffffffffffffffffffffffffff1673ffffffffffffffffffffffffffffffffffffffff168152602001908152602001600020600082015181600001556020820151816001015560408201518160020160006101000a81548173ffffffffffffffffffffffffffffffffffffffff021916908373ffffffffffffffffffffffffffffffffffffffff1602179055509050508080600101915050610084565b5050506119a1806102176000396000f300608060405260043610610099576000357c0100000000000000000000000000000000000000000000000000000000900463ffffffff16806323d44dee1461009e578063245d1314146100f55780633f31281a14610138578063587cde1e1461017b57806364bc82c31461020c578063943e170d14610279578063a39fac12146102a4578063e71e592b14610310578063f77c4791146103b9575b600080fd5b3480156100aa57600080fd5b506100df600480360381019080803573ffffffffffffffffffffffffffffffffffffffff169060200190929190505050610410565b6040518082815260200191505060405180910390f35b34801561010157600080fd5b50610136600480360381019080803573ffffffffffffffffffffffffffffffffffffffff16906020019092919050505061060e565b005b34801561014457600080fd5b50610179600480360381019080803573ffffffffffffffffffffffffffffffffffffffff1690602001909291905050506107fa565b005b34801561018757600080fd5b506101bc600480360381019080803573ffffffffffffffffffffffffffffffffffffffff169060200190929190505050610aae565b604051808481526020018381526020018273ffffffffffffffffffffffffffffffffffffffff1673ffffffffffffffffffffffffffffffffffffffff168152602001935050505060405180910390f35b34801561021857600080fd5b5061023760048036038101908080359060200190929190505050610af8565b604051808273ffffffffffffffffffffffffffffffffffffffff1673ffffffffffffffffffffffffffffffffffffffff16815260200191505060405180910390f35b34801561028557600080fd5b5061028e610b36565b6040518082815260200191505060405180910390f35b3480156102b057600080fd5b506102b9610c74565b6040518080602001828103825283818151815260200191508051906020019060200280838360005b838110156102fc5780820151818401526020810190506102e1565b505050509050019250505060405180910390f35b34801561031c57600080fd5b506103b76004803603810190808035906020019082018035906020019080806020026020016040519081016040528093929190818152602001838360200280828437820191505050505050919291929080359060200190820180359060200190808060200260200160405190810160405280939291908181526020018383602002808284378201915050505050509192919290505050610d02565b005b3480156103c557600080fd5b506103ce610f19565b604051808273ffffffffffffffffffffffffffffffffffffffff1673ffffffffffffffffffffffffffffffffffffffff16815260200191505060405180910390f35b600080600090505b6001805490508110156106085761051b6002600060018481548110151561043b57fe5b9060005260206000200160009054906101000a900473ffffffffffffffffffffffffffffffffffffffff1673ffffffffffffffffffffffffffffffffffffffff1673ffffffffffffffffffffffffffffffffffffffff1681526020019081526020016000206060604051908101604052908160008201548152602001600182015481526020016002820160009054906101000a900473ffffffffffffffffffffffffffffffffffffffff1673ffffffffffffffffffffffffffffffffffffffff1673ffffffffffffffffffffffffffffffffffffffff1681525050610f3e565b80156105ed57508273ffffffffffffffffffffffffffffffffffffffff166002600060018481548110151561054c57fe5b9060005260206000200160009054906101000a900473ffffffffffffffffffffffffffffffffffffffff1673ffffffffffffffffffffffffffffffffffffffff1673ffffffffffffffffffffffffffffffffffffffff16815260200190815260200160002060020160009054906101000a900473ffffffffffffffffffffffffffffffffffffffff1673ffffffffffffffffffffffffffffffffffffffff16145b156105fb5781806001019250505b8080600101915050610418565b50919050565b6106cb600260003373ffffffffffffffffffffffffffffffffffffffff1673ffffffffffffffffffffffffffffffffffffffff1681526020019081526020016000206060604051908101604052908160008201548152602001600182015481526020016002820160009054906101000a900473ffffffffffffffffffffffffffffffffffffffff1673ffffffffffffffffffffffffffffffffffffffff1673ffffffffffffffffffffffffffffffffffffffff1681525050610f77565b156107f75780600260003373ffffffffffffffffffffffffffffffffffffffff1673ffffffffffffffffffffffffffffffffffffffff16815260200190815260200160002060020160006101000a81548173ffffffffffffffffffffffffffffffffffffffff021916908373ffffffffffffffffffffffffffffffffffffffff16021790555061075a816107fa565b7fea8e84a162c4602ea0c61acf85fa1242db8ce550e7a448d613e3c7dff2f067933360405180806020018373ffffffffffffffffffffffffffffffffffffffff1673ffffffffffffffffffffffffffffffffffffffff1681526020018281038252600e8152602001807f7369676e557365724368616e67650000000000000000000000000000000000008152506020019250505060405180910390a15b50565b6000610804610b36565b61080d83610410565b101515610aaa576000809054906101000a900473ffffffffffffffffffffffffffffffffffffffff1673ffffffffffffffffffffffffffffffffffffffff1663c998e9dd836040518263ffffffff167c0100000000000000000000000000000000000000000000000000000000028152600401808273ffffffffffffffffffffffffffffffffffffffff1673ffffffffffffffffffffffffffffffffffffffff168152602001915050600060405180830381600087803b1580156108d057600080fd5b505af11580156108e4573d6000803e3d6000fd5b50505050600090505b600180549050811015610aa957426002600060018481548110151561090e57fe5b9060005260206000200160009054906101000a900473ffffffffffffffffffffffffffffffffffffffff1673ffffffffffffffffffffffffffffffffffffffff1673ffffffffffffffffffffffffffffffffffffffff1681526020019081526020016000206001015411156109fe57426002600060018481548110151561099157fe5b9060005260206000200160009054906101000a900473ffffffffffffffffffffffffffffffffffffffff1673ffffffffffffffffffffffffffffffffffffffff1673ffffffffffffffffffffffffffffffffffffffff168152602001908152602001600020600001819055505b60026000600183815481101515610a1157fe5b9060005260206000200160009054906101000a900473ffffffffffffffffffffffffffffffffffffffff1673ffffffffffffffffffffffffffffffffffffffff1673ffffffffffffffffffffffffffffffffffffffff16815260200190815260200160002060020160006101000a81549073ffffffffffffffffffffffffffffffffffffffff021916905580806001019150506108ed565b5b5050565b60026020528060005260406000206000915090508060000154908060010154908060020160009054906101000a900473ffffffffffffffffffffffffffffffffffffffff16905083565b600181815481101515610b0757fe5b906000526020600020016000915054906101000a900473ffffffffffffffffffffffffffffffffffffffff1681565b60008060008090505b600180549050811015610c5d57610c4260026000600184815481101515610b6257fe5b9060005260206000200160009054906101000a900473ffffffffffffffffffffffffffffffffffffffff1673ffffffffffffffffffffffffffffffffffffffff1673ffffffffffffffffffffffffffffffffffffffff1681526020019081526020016000206060604051908101604052908160008201548152602001600182015481526020016002820160009054906101000a900473ffffffffffffffffffffffffffffffffffffffff1673ffffffffffffffffffffffffffffffffffffffff1673ffffffffffffffffffffffffffffffffffffffff1681525050610f88565b15610c505781806001019250505b8080600101915050610b3f565b6001600283811515610c6b57fe5b04019250505090565b60606001805480602002602001604051908101604052809291908181526020018280548015610cf857602002820191906000526020600020905b8160009054906101000a900473ffffffffffffffffffffffffffffffffffffffff1673ffffffffffffffffffffffffffffffffffffffff1681526020019060010190808311610cae575b5050505050905090565b6000806000809054906101000a900473ffffffffffffffffffffffffffffffffffffffff1673ffffffffffffffffffffffffffffffffffffffff16631c1c22896040518163ffffffff167c0100000000000000000000000000000000000000000000000000000000028152600401602060405180830381600087803b158015610d8a57600080fd5b505af1158015610d9e573d6000803e3d6000fd5b505050506040513d6020811015610db457600080fd5b810190808051906020019092919050505073ffffffffffffffffffffffffffffffffffffffff163373ffffffffffffffffffffffffffffffffffffffff161415610f1357600091505b8351821015610e3357610e268483815181101515610e1757fe5b90602001906020020151610fbb565b8180600101925050610dfd565b610e3b611269565b600090505b8251811015610e7657610e698382815181101515610e5a57fe5b90602001906020020151611555565b8080600101915050610e40565b7fea8e84a162c4602ea0c61acf85fa1242db8ce550e7a448d613e3c7dff2f067933360405180806020018373ffffffffffffffffffffffffffffffffffffffff1673ffffffffffffffffffffffffffffffffffffffff168152602001828103825260108152602001807f7265706c61636544656c656761746573000000000000000000000000000000008152506020019250505060405180910390a15b50505050565b6000809054906101000a900473ffffffffffffffffffffffffffffffffffffffff1681565b6000610f4982610f88565b8015610f7057506000826040015173ffffffffffffffffffffffffffffffffffffffff1614155b9050919050565b600080826000015114159050919050565b6000610f9382610f77565b8015610fa55750610fa38261182a565b155b8015610fb45750816020015142115b9050919050565b426000809054906101000a900473ffffffffffffffffffffffffffffffffffffffff1673ffffffffffffffffffffffffffffffffffffffff16631ec9f7b56040518163ffffffff167c0100000000000000000000000000000000000000000000000000000000028152600401602060405180830381600087803b15801561104157600080fd5b505af1158015611055573d6000803e3d6000fd5b505050506040513d602081101561106b57600080fd5b810190808051906020019092919050505001600260008373ffffffffffffffffffffffffffffffffffffffff1673ffffffffffffffffffffffffffffffffffffffff1681526020019081526020016000206000015411156112665742600260008373ffffffffffffffffffffffffffffffffffffffff1673ffffffffffffffffffffffffffffffffffffffff16815260200190815260200160002060010154111561115c5742600260008373ffffffffffffffffffffffffffffffffffffffff1673ffffffffffffffffffffffffffffffffffffffff16815260200190815260200160002060000181905550611265565b426000809054906101000a900473ffffffffffffffffffffffffffffffffffffffff1673ffffffffffffffffffffffffffffffffffffffff16631ec9f7b56040518163ffffffff167c0100000000000000000000000000000000000000000000000000000000028152600401602060405180830381600087803b1580156111e257600080fd5b505af11580156111f6573d6000803e3d6000fd5b505050506040513d602081101561120c57600080fd5b810190808051906020019092919050505001600260008373ffffffffffffffffffffffffffffffffffffffff1673ffffffffffffffffffffffffffffffffffffffff168152602001908152602001600020600001819055505b5b50565b60008090505b600180549050811015611552576113726002600060018481548110151561129257fe5b9060005260206000200160009054906101000a900473ffffffffffffffffffffffffffffffffffffffff1673ffffffffffffffffffffffffffffffffffffffff1673ffffffffffffffffffffffffffffffffffffffff1681526020019081526020016000206060604051908101604052908160008201548152602001600182015481526020016002820160009054906101000a900473ffffffffffffffffffffffffffffffffffffffff1673ffffffffffffffffffffffffffffffffffffffff1673ffffffffffffffffffffffffffffffffffffffff168152505061182a565b156115445760006002600060018481548110151561138c57fe5b9060005260206000200160009054906101000a900473ffffffffffffffffffffffffffffffffffffffff1673ffffffffffffffffffffffffffffffffffffffff1673ffffffffffffffffffffffffffffffffffffffff1681526020019081526020016000206000018190555060006002600060018481548110151561140d57fe5b9060005260206000200160009054906101000a900473ffffffffffffffffffffffffffffffffffffffff1673ffffffffffffffffffffffffffffffffffffffff1673ffffffffffffffffffffffffffffffffffffffff1681526020019081526020016000206001018190555060006002600060018481548110151561148e57fe5b9060005260206000200160009054906101000a900473ffffffffffffffffffffffffffffffffffffffff1673ffffffffffffffffffffffffffffffffffffffff1673ffffffffffffffffffffffffffffffffffffffff16815260200190815260200160002060020160006101000a81548173ffffffffffffffffffffffffffffffffffffffff021916908373ffffffffffffffffffffffffffffffffffffffff16021790555061153f81600161183b565b61154d565b80806001019150505b61126f565b50565b611612600260008373ffffffffffffffffffffffffffffffffffffffff1673ffffffffffffffffffffffffffffffffffffffff1681526020019081526020016000206060604051908101604052908160008201548152602001600182015481526020016002820160009054906101000a900473ffffffffffffffffffffffffffffffffffffffff1673ffffffffffffffffffffffffffffffffffffffff1673ffffffffffffffffffffffffffffffffffffffff1681525050610f77565b1580156116245750600f600180549050105b1561182757606060405190810160405280651cae8c13e00081526020016000809054906101000a900473ffffffffffffffffffffffffffffffffffffffff1673ffffffffffffffffffffffffffffffffffffffff16631ec9f7b56040518163ffffffff167c0100000000000000000000000000000000000000000000000000000000028152600401602060405180830381600087803b1580156116c657600080fd5b505af11580156116da573d6000803e3d6000fd5b505050506040513d60208110156116f057600080fd5b810190808051906020019092919050505042018152602001600073ffffffffffffffffffffffffffffffffffffffff16815250600260008373ffffffffffffffffffffffffffffffffffffffff1673ffffffffffffffffffffffffffffffffffffffff168152602001908152602001600020600082015181600001556020820151816001015560408201518160020160006101000a81548173ffffffffffffffffffffffffffffffffffffffff021916908373ffffffffffffffffffffffffffffffffffffffff16021790555090505060018190806001815401808255809150509060018203906000526020600020016000909192909190916101000a81548173ffffffffffffffffffffffffffffffffffffffff021916908373ffffffffffffffffffffffffffffffffffffffff160217905550505b50565b600042826000015111159050919050565b600060018280549050039050818181548110151561185557fe5b9060005260206000200160009054906101000a900473ffffffffffffffffffffffffffffffffffffffff16828481548110151561188e57fe5b9060005260206000200160006101000a81548173ffffffffffffffffffffffffffffffffffffffff021916908373ffffffffffffffffffffffffffffffffffffffff16021790555081818154811015156118e457fe5b9060005260206000200160006101000a81549073ffffffffffffffffffffffffffffffffffffffff021916905580828161191e9190611924565b50505050565b81548183558181111561194b5781836000526020600020918201910161194a9190611950565b5b505050565b61197291905b8082111561196e576000816000905550600101611956565b5090565b905600a165627a7a72305820648ff5de1c7b141e4df4f6c1c41e44dac40af5cb4afe2c10c9e93c1ce63280650029a165627a7a7230582087da5380601fa8b21d3a59125d1aebce5909485a2fd7dd25c729fcc91e6ff35e0029",
  "source": "pragma solidity ^0.4.4;\nimport \"./RecoveryQuorum.sol\";\n\ncontract IdentityFactory {\n    event IdentityCreated(\n        address indexed userKey,\n        address proxy,\n        address controller,\n        address recoveryQuorum);\n\n    mapping(address => address) public senderToProxy;\n\n    //cost ~2.4M gas\n    function CreateProxyWithControllerAndRecovery(address userKey, address[] delegates, uint longTimeLock, uint shortTimeLock) {\n        Proxy proxy = new Proxy();\n        RecoverableController controller = new RecoverableController(proxy, userKey, longTimeLock, shortTimeLock);\n        proxy.transfer(controller);\n        RecoveryQuorum recoveryQuorum = new RecoveryQuorum(controller, delegates);\n        controller.changeRecoveryFromRecovery(recoveryQuorum);\n\n        IdentityCreated(userKey, proxy, controller, recoveryQuorum);\n        senderToProxy[msg.sender] = proxy;\n    }\n}\n",
  "sourcePath": "/Users/xyli/Code/JavaScript/uport/uport-test/uport-contracts/contracts/IdentityFactory.sol",
  "compiler": {
    "name": "solc",
    "version": "0.4.24+commit.e67f0147.Emscripten.clang"
  },
  "schemaVersion": "2.0.1",
  "updatedAt": "2018-10-10T10:34:28.727Z"
}