{
  "contractName": "RecoverableController",
  "abi": [
    {
      "constant": true,
      "inputs": [],
      "name": "proposedRecoveryKey",
      "outputs": [
        {
          "name": "",
          "type": "address"
        }
      ],
      "payable": false,
      "stateMutability": "view",
      "type": "function"
    },
    {
      "constant": true,
      "inputs": [],
      "name": "userKey",
      "outputs": [
        {
          "name": "",
          "type": "address"
        }
      ],
      "payable": false,
      "stateMutability": "view",
      "type": "function"
    },
    {
      "constant": true,
      "inputs": [],
      "name": "proposedControllerPendingUntil",
      "outputs": [
        {
          "name": "",
          "type": "uint256"
        }
      ],
      "payable": false,
      "stateMutability": "view",
      "type": "function"
    },
    {
      "constant": true,
      "inputs": [],
      "name": "longTimeLock",
      "outputs": [
        {
          "name": "",
          "type": "uint256"
        }
      ],
      "payable": false,
      "stateMutability": "view",
      "type": "function"
    },
    {
      "constant": true,
      "inputs": [],
      "name": "proposedUserKey",
      "outputs": [
        {
          "name": "",
          "type": "address"
        }
      ],
      "payable": false,
      "stateMutability": "view",
      "type": "function"
    },
    {
      "constant": true,
      "inputs": [],
      "name": "proposedUserKeyPendingUntil",
      "outputs": [
        {
          "name": "",
          "type": "uint256"
        }
      ],
      "payable": false,
      "stateMutability": "view",
      "type": "function"
    },
    {
      "constant": true,
      "inputs": [],
      "name": "version",
      "outputs": [
        {
          "name": "",
          "type": "uint256"
        }
      ],
      "payable": false,
      "stateMutability": "view",
      "type": "function"
    },
    {
      "constant": true,
      "inputs": [],
      "name": "recoveryKey",
      "outputs": [
        {
          "name": "",
          "type": "address"
        }
      ],
      "payable": false,
      "stateMutability": "view",
      "type": "function"
    },
    {
      "constant": true,
      "inputs": [],
      "name": "proposedRecoveryKeyPendingUntil",
      "outputs": [
        {
          "name": "",
          "type": "uint256"
        }
      ],
      "payable": false,
      "stateMutability": "view",
      "type": "function"
    },
    {
      "constant": true,
      "inputs": [],
      "name": "proxy",
      "outputs": [
        {
          "name": "",
          "type": "address"
        }
      ],
      "payable": false,
      "stateMutability": "view",
      "type": "function"
    },
    {
      "constant": true,
      "inputs": [],
      "name": "proposedController",
      "outputs": [
        {
          "name": "",
          "type": "address"
        }
      ],
      "payable": false,
      "stateMutability": "view",
      "type": "function"
    },
    {
      "constant": true,
      "inputs": [],
      "name": "shortTimeLock",
      "outputs": [
        {
          "name": "",
          "type": "uint256"
        }
      ],
      "payable": false,
      "stateMutability": "view",
      "type": "function"
    },
    {
      "inputs": [
        {
          "name": "proxyAddress",
          "type": "address"
        },
        {
          "name": "_userKey",
          "type": "address"
        },
        {
          "name": "_longTimeLock",
          "type": "uint256"
        },
        {
          "name": "_shortTimeLock",
          "type": "uint256"
        }
      ],
      "payable": false,
      "stateMutability": "nonpayable",
      "type": "constructor"
    },
    {
      "anonymous": false,
      "inputs": [
        {
          "indexed": false,
          "name": "action",
          "type": "string"
        },
        {
          "indexed": false,
          "name": "initiatedBy",
          "type": "address"
        }
      ],
      "name": "RecoveryEvent",
      "type": "event"
    },
    {
      "constant": false,
      "inputs": [
        {
          "name": "destination",
          "type": "address"
        },
        {
          "name": "value",
          "type": "uint256"
        },
        {
          "name": "data",
          "type": "bytes"
        }
      ],
      "name": "forward",
      "outputs": [],
      "payable": false,
      "stateMutability": "nonpayable",
      "type": "function"
    },
    {
      "constant": false,
      "inputs": [
        {
          "name": "_proposedRecoveryKey",
          "type": "address"
        }
      ],
      "name": "signRecoveryChange",
      "outputs": [],
      "payable": false,
      "stateMutability": "nonpayable",
      "type": "function"
    },
    {
      "constant": false,
      "inputs": [],
      "name": "changeRecovery",
      "outputs": [],
      "payable": false,
      "stateMutability": "nonpayable",
      "type": "function"
    },
    {
      "constant": false,
      "inputs": [
        {
          "name": "_proposedController",
          "type": "address"
        }
      ],
      "name": "signControllerChange",
      "outputs": [],
      "payable": false,
      "stateMutability": "nonpayable",
      "type": "function"
    },
    {
      "constant": false,
      "inputs": [],
      "name": "changeController",
      "outputs": [],
      "payable": false,
      "stateMutability": "nonpayable",
      "type": "function"
    },
    {
      "constant": false,
      "inputs": [
        {
          "name": "_proposedUserKey",
          "type": "address"
        }
      ],
      "name": "signUserKeyChange",
      "outputs": [],
      "payable": false,
      "stateMutability": "nonpayable",
      "type": "function"
    },
    {
      "constant": false,
      "inputs": [],
      "name": "changeUserKey",
      "outputs": [],
      "payable": false,
      "stateMutability": "nonpayable",
      "type": "function"
    },
    {
      "constant": false,
      "inputs": [
        {
          "name": "_recoveryKey",
          "type": "address"
        }
      ],
      "name": "changeRecoveryFromRecovery",
      "outputs": [],
      "payable": false,
      "stateMutability": "nonpayable",
      "type": "function"
    },
    {
      "constant": false,
      "inputs": [
        {
          "name": "_userKey",
          "type": "address"
        }
      ],
      "name": "changeUserKeyFromRecovery",
      "outputs": [],
      "payable": false,
      "stateMutability": "nonpayable",
      "type": "function"
    }
  ],
  "bytecode": "0x608060405234801561001057600080fd5b5060405160808061136083398101806040528101908080519060200190929190805190602001909291908051906020019092919080519060200190929190505050600160008190555083600160006101000a81548173ffffffffffffffffffffffffffffffffffffffff021916908373ffffffffffffffffffffffffffffffffffffffff16021790555082600260006101000a81548173ffffffffffffffffffffffffffffffffffffffff021916908373ffffffffffffffffffffffffffffffffffffffff16021790555080600a8190555081600b8190555033600560006101000a81548173ffffffffffffffffffffffffffffffffffffffff021916908373ffffffffffffffffffffffffffffffffffffffff160217905550505050506112238061013d6000396000f30060806040526004361061011d576000357c0100000000000000000000000000000000000000000000000000000000900463ffffffff16806309b8f77a146101225780631c1c2289146101795780631de0e877146101d05780631ec9f7b5146101fb57806334c7dcf8146102265780634893ed5b1461027d57806354fd4d50146102a85780637a5d5345146102d35780637ab0b9981461031657806384191f62146103595780638ac0eef91461037057806397905a8814610387578063a08df770146103de578063c998e9dd14610421578063cbd2c73b14610464578063d1c484f6146104a7578063d233fc0b146104d2578063d7f31eb9146104e9578063ec5568891461057c578063f60edb0e146105d3578063f66c66911461062a575b600080fd5b34801561012e57600080fd5b50610137610655565b604051808273ffffffffffffffffffffffffffffffffffffffff1673ffffffffffffffffffffffffffffffffffffffff16815260200191505060405180910390f35b34801561018557600080fd5b5061018e61067b565b604051808273ffffffffffffffffffffffffffffffffffffffff1673ffffffffffffffffffffffffffffffffffffffff16815260200191505060405180910390f35b3480156101dc57600080fd5b506101e56106a1565b6040518082815260200191505060405180910390f35b34801561020757600080fd5b506102106106a7565b6040518082815260200191505060405180910390f35b34801561023257600080fd5b5061023b6106ad565b604051808273ffffffffffffffffffffffffffffffffffffffff1673ffffffffffffffffffffffffffffffffffffffff16815260200191505060405180910390f35b34801561028957600080fd5b506102926106d3565b6040518082815260200191505060405180910390f35b3480156102b457600080fd5b506102bd6106d9565b6040518082815260200191505060405180910390f35b3480156102df57600080fd5b50610314600480360381019080803573ffffffffffffffffffffffffffffffffffffffff1690602001909291905050506106df565b005b34801561032257600080fd5b50610357600480360381019080803573ffffffffffffffffffffffffffffffffffffffff169060200190929190505050610821565b005b34801561036557600080fd5b5061036e610963565b005b34801561037c57600080fd5b50610385610ae6565b005b34801561039357600080fd5b5061039c610c5c565b604051808273ffffffffffffffffffffffffffffffffffffffff1673ffffffffffffffffffffffffffffffffffffffff16815260200191505060405180910390f35b3480156103ea57600080fd5b5061041f600480360381019080803573ffffffffffffffffffffffffffffffffffffffff169060200190929190505050610c82565b005b34801561042d57600080fd5b50610462600480360381019080803573ffffffffffffffffffffffffffffffffffffffff169060200190929190505050610d1d565b005b34801561047057600080fd5b506104a5600480360381019080803573ffffffffffffffffffffffffffffffffffffffff169060200190929190505050610ddd565b005b3480156104b357600080fd5b506104bc610f1f565b6040518082815260200191505060405180910390f35b3480156104de57600080fd5b506104e7610f25565b005b3480156104f557600080fd5b5061057a600480360381019080803573ffffffffffffffffffffffffffffffffffffffff16906020019092919080359060200190929190803590602001908201803590602001908080601f0160208091040260200160405190810160405280939291908181526020018383808284378201915050505050509192919290505050610fff565b005b34801561058857600080fd5b506105916111a5565b604051808273ffffffffffffffffffffffffffffffffffffffff1673ffffffffffffffffffffffffffffffffffffffff16815260200191505060405180910390f35b3480156105df57600080fd5b506105e86111cb565b604051808273ffffffffffffffffffffffffffffffffffffffff1673ffffffffffffffffffffffffffffffffffffffff16815260200191505060405180910390f35b34801561063657600080fd5b5061063f6111f1565b6040518082815260200191505060405180910390f35b600660009054906101000a900473ffffffffffffffffffffffffffffffffffffffff1681565b600260009054906101000a900473ffffffffffffffffffffffffffffffffffffffff1681565b60095481565b600b5481565b600360009054906101000a900473ffffffffffffffffffffffffffffffffffffffff1681565b60045481565b60005481565b600260009054906101000a900473ffffffffffffffffffffffffffffffffffffffff1673ffffffffffffffffffffffffffffffffffffffff163373ffffffffffffffffffffffffffffffffffffffff16141561081e57600b54420160098190555080600860006101000a81548173ffffffffffffffffffffffffffffffffffffffff021916908373ffffffffffffffffffffffffffffffffffffffff1602179055507fea8e84a162c4602ea0c61acf85fa1242db8ce550e7a448d613e3c7dff2f067933360405180806020018373ffffffffffffffffffffffffffffffffffffffff1673ffffffffffffffffffffffffffffffffffffffff168152602001828103825260148152602001807f7369676e436f6e74726f6c6c65724368616e67650000000000000000000000008152506020019250505060405180910390a15b50565b600260009054906101000a900473ffffffffffffffffffffffffffffffffffffffff1673ffffffffffffffffffffffffffffffffffffffff163373ffffffffffffffffffffffffffffffffffffffff16141561096057600b54420160078190555080600660006101000a81548173ffffffffffffffffffffffffffffffffffffffff021916908373ffffffffffffffffffffffffffffffffffffffff1602179055507fea8e84a162c4602ea0c61acf85fa1242db8ce550e7a448d613e3c7dff2f067933360405180806020018373ffffffffffffffffffffffffffffffffffffffff1673ffffffffffffffffffffffffffffffffffffffff168152602001828103825260128152602001807f7369676e5265636f766572794368616e676500000000000000000000000000008152506020019250505060405180910390a15b50565b426009541080156109ad57506000600860009054906101000a900473ffffffffffffffffffffffffffffffffffffffff1673ffffffffffffffffffffffffffffffffffffffff1614155b15610ae457600160009054906101000a900473ffffffffffffffffffffffffffffffffffffffff1673ffffffffffffffffffffffffffffffffffffffff16631a695230600860009054906101000a900473ffffffffffffffffffffffffffffffffffffffff166040518263ffffffff167c0100000000000000000000000000000000000000000000000000000000028152600401808273ffffffffffffffffffffffffffffffffffffffff1673ffffffffffffffffffffffffffffffffffffffff168152602001915050600060405180830381600087803b158015610a9157600080fd5b505af1158015610aa5573d6000803e3d6000fd5b50505050600860009054906101000a900473ffffffffffffffffffffffffffffffffffffffff1673ffffffffffffffffffffffffffffffffffffffff16ff5b565b42600454108015610b3057506000600360009054906101000a900473ffffffffffffffffffffffffffffffffffffffff1673ffffffffffffffffffffffffffffffffffffffff1614155b15610c5a57600360009054906101000a900473ffffffffffffffffffffffffffffffffffffffff16600260006101000a81548173ffffffffffffffffffffffffffffffffffffffff021916908373ffffffffffffffffffffffffffffffffffffffff160217905550600360006101000a81549073ffffffffffffffffffffffffffffffffffffffff02191690557fea8e84a162c4602ea0c61acf85fa1242db8ce550e7a448d613e3c7dff2f067933360405180806020018373ffffffffffffffffffffffffffffffffffffffff1673ffffffffffffffffffffffffffffffffffffffff1681526020018281038252600d8152602001807f6368616e6765557365724b6579000000000000000000000000000000000000008152506020019250505060405180910390a15b565b600560009054906101000a900473ffffffffffffffffffffffffffffffffffffffff1681565b600560009054906101000a900473ffffffffffffffffffffffffffffffffffffffff1673ffffffffffffffffffffffffffffffffffffffff163373ffffffffffffffffffffffffffffffffffffffff161415610d1a5780600560006101000a81548173ffffffffffffffffffffffffffffffffffffffff021916908373ffffffffffffffffffffffffffffffffffffffff1602179055505b50565b600560009054906101000a900473ffffffffffffffffffffffffffffffffffffffff1673ffffffffffffffffffffffffffffffffffffffff163373ffffffffffffffffffffffffffffffffffffffff161415610dda57600360006101000a81549073ffffffffffffffffffffffffffffffffffffffff021916905580600260006101000a81548173ffffffffffffffffffffffffffffffffffffffff021916908373ffffffffffffffffffffffffffffffffffffffff1602179055505b50565b600260009054906101000a900473ffffffffffffffffffffffffffffffffffffffff1673ffffffffffffffffffffffffffffffffffffffff163373ffffffffffffffffffffffffffffffffffffffff161415610f1c57600a54420160048190555080600360006101000a81548173ffffffffffffffffffffffffffffffffffffffff021916908373ffffffffffffffffffffffffffffffffffffffff1602179055507fea8e84a162c4602ea0c61acf85fa1242db8ce550e7a448d613e3c7dff2f067933360405180806020018373ffffffffffffffffffffffffffffffffffffffff1673ffffffffffffffffffffffffffffffffffffffff168152602001828103825260118152602001807f7369676e557365724b65794368616e67650000000000000000000000000000008152506020019250505060405180910390a15b50565b60075481565b42600754108015610f6f57506000600660009054906101000a900473ffffffffffffffffffffffffffffffffffffffff1673ffffffffffffffffffffffffffffffffffffffff1614155b15610ffd57600660009054906101000a900473ffffffffffffffffffffffffffffffffffffffff16600560006101000a81548173ffffffffffffffffffffffffffffffffffffffff021916908373ffffffffffffffffffffffffffffffffffffffff160217905550600660006101000a81549073ffffffffffffffffffffffffffffffffffffffff02191690555b565b600260009054906101000a900473ffffffffffffffffffffffffffffffffffffffff1673ffffffffffffffffffffffffffffffffffffffff163373ffffffffffffffffffffffffffffffffffffffff1614156111a057600160009054906101000a900473ffffffffffffffffffffffffffffffffffffffff1673ffffffffffffffffffffffffffffffffffffffff1663d7f31eb98484846040518463ffffffff167c0100000000000000000000000000000000000000000000000000000000028152600401808473ffffffffffffffffffffffffffffffffffffffff1673ffffffffffffffffffffffffffffffffffffffff16815260200183815260200180602001828103825283818151815260200191508051906020019080838360005b8381101561113957808201518184015260208101905061111e565b50505050905090810190601f1680156111665780820380516001836020036101000a031916815260200191505b50945050505050600060405180830381600087803b15801561118757600080fd5b505af115801561119b573d6000803e3d6000fd5b505050505b505050565b600160009054906101000a900473ffffffffffffffffffffffffffffffffffffffff1681565b600860009054906101000a900473ffffffffffffffffffffffffffffffffffffffff1681565b600a54815600a165627a7a723058204a8bf15caa6b0fd6d5523cb50a40db9d0cbda709f0b548d8a902fadf5ed2dd220029",
  "source": "pragma solidity ^0.4.8;\nimport \"./Proxy.sol\";\n\ncontract RecoverableController {\n  uint    public version;\n  Proxy   public proxy;\n  \n  address public userKey;\n  address public proposedUserKey;\n  uint    public proposedUserKeyPendingUntil;\n\n  address public recoveryKey;\n  address public proposedRecoveryKey;\n  uint    public proposedRecoveryKeyPendingUntil;\n\n  address public proposedController;\n  uint    public proposedControllerPendingUntil;\n\n  uint    public shortTimeLock;// use 900 for 15 minutes\n  uint    public longTimeLock; // use 259200 for 3 days\n\n  event RecoveryEvent(string action, address initiatedBy);\n\n  modifier onlyUserKey() { if (msg.sender == userKey) _; }\n  modifier onlyRecoveryKey() { if (msg.sender == recoveryKey) _; }\n\n  function RecoverableController(address proxyAddress, address _userKey, uint _longTimeLock, uint _shortTimeLock) {\n    version = 1;\n    proxy = Proxy(proxyAddress);\n    userKey = _userKey;\n    shortTimeLock = _shortTimeLock;\n    longTimeLock = _longTimeLock;\n    recoveryKey = msg.sender;\n  }\n\n  function forward(address destination, uint value, bytes data) onlyUserKey {\n    proxy.forward(destination, value, data);\n  }\n  //pass 0x0 to cancel \n  function signRecoveryChange(address _proposedRecoveryKey) onlyUserKey{\n    proposedRecoveryKeyPendingUntil = now + longTimeLock;\n    proposedRecoveryKey = _proposedRecoveryKey;\n    RecoveryEvent(\"signRecoveryChange\", msg.sender);\n  }\n  function changeRecovery() {\n    if(proposedRecoveryKeyPendingUntil < now && proposedRecoveryKey != 0x0){\n      recoveryKey = proposedRecoveryKey;\n      delete proposedRecoveryKey;\n    }\n  }\n  //pass 0x0 to cancel \n  function signControllerChange(address _proposedController) onlyUserKey{\n    proposedControllerPendingUntil = now + longTimeLock;\n    proposedController = _proposedController;\n    RecoveryEvent(\"signControllerChange\", msg.sender);\n  }\n  function changeController() {\n    if(proposedControllerPendingUntil < now && proposedController != 0x0){\n      proxy.transfer(proposedController);\n      suicide(proposedController);\n    }\n  }\n  //pass 0x0 to cancel \n  function signUserKeyChange(address _proposedUserKey) onlyUserKey{\n    proposedUserKeyPendingUntil = now + shortTimeLock;\n    proposedUserKey = _proposedUserKey;\n    RecoveryEvent(\"signUserKeyChange\", msg.sender);\n  }\n  function changeUserKey(){\n    if(proposedUserKeyPendingUntil < now && proposedUserKey != 0x0){\n      userKey = proposedUserKey;\n      delete proposedUserKey;\n      RecoveryEvent(\"changeUserKey\", msg.sender);\n    }\n  }\n  \n  function changeRecoveryFromRecovery(address _recoveryKey) onlyRecoveryKey{ recoveryKey = _recoveryKey; }\n  function changeUserKeyFromRecovery(address _userKey) onlyRecoveryKey{\n    delete proposedUserKey;\n    userKey = _userKey;\n  }\n}\n\n",
  "sourcePath": "/Users/xyli/Code/JavaScript/uport/uport-test/uport-contracts/contracts/RecoverableController.sol",
  "compiler": {
    "name": "solc",
    "version": "0.4.24+commit.e67f0147.Emscripten.clang"
  },
  "schemaVersion": "2.0.1",
  "updatedAt": "2018-10-10T10:09:28.659Z"
}