{
  "contractName": "RecoveryQuorum",
  "abi": [
    {
      "constant": true,
      "inputs": [
        {
          "name": "",
          "type": "address"
        }
      ],
      "name": "delegates",
      "outputs": [
        {
          "name": "deletedAfter",
          "type": "uint256"
        },
        {
          "name": "pendingUntil",
          "type": "uint256"
        },
        {
          "name": "proposedUserKey",
          "type": "address"
        }
      ],
      "payable": false,
      "stateMutability": "view",
      "type": "function"
    },
    {
      "constant": true,
      "inputs": [
        {
          "name": "",
          "type": "uint256"
        }
      ],
      "name": "delegateAddresses",
      "outputs": [
        {
          "name": "",
          "type": "address"
        }
      ],
      "payable": false,
      "stateMutability": "view",
      "type": "function"
    },
    {
      "constant": true,
      "inputs": [],
      "name": "controller",
      "outputs": [
        {
          "name": "",
          "type": "address"
        }
      ],
      "payable": false,
      "stateMutability": "view",
      "type": "function"
    },
    {
      "inputs": [
        {
          "name": "_controller",
          "type": "address"
        },
        {
          "name": "_delegates",
          "type": "address[]"
        }
      ],
      "payable": false,
      "stateMutability": "nonpayable",
      "type": "constructor"
    },
    {
      "anonymous": false,
      "inputs": [
        {
          "indexed": false,
          "name": "action",
          "type": "string"
        },
        {
          "indexed": false,
          "name": "initiatedBy",
          "type": "address"
        }
      ],
      "name": "RecoveryEvent",
      "type": "event"
    },
    {
      "constant": false,
      "inputs": [
        {
          "name": "proposedUserKey",
          "type": "address"
        }
      ],
      "name": "signUserChange",
      "outputs": [],
      "payable": false,
      "stateMutability": "nonpayable",
      "type": "function"
    },
    {
      "constant": false,
      "inputs": [
        {
          "name": "newUserKey",
          "type": "address"
        }
      ],
      "name": "changeUserKey",
      "outputs": [],
      "payable": false,
      "stateMutability": "nonpayable",
      "type": "function"
    },
    {
      "constant": false,
      "inputs": [
        {
          "name": "delegatesToRemove",
          "type": "address[]"
        },
        {
          "name": "delegatesToAdd",
          "type": "address[]"
        }
      ],
      "name": "replaceDelegates",
      "outputs": [],
      "payable": false,
      "stateMutability": "nonpayable",
      "type": "function"
    },
    {
      "constant": false,
      "inputs": [
        {
          "name": "_proposedUserKey",
          "type": "address"
        }
      ],
      "name": "collectedSignatures",
      "outputs": [
        {
          "name": "signatures",
          "type": "uint256"
        }
      ],
      "payable": false,
      "stateMutability": "nonpayable",
      "type": "function"
    },
    {
      "constant": true,
      "inputs": [],
      "name": "getAddresses",
      "outputs": [
        {
          "name": "",
          "type": "address[]"
        }
      ],
      "payable": false,
      "stateMutability": "view",
      "type": "function"
    },
    {
      "constant": false,
      "inputs": [],
      "name": "neededSignatures",
      "outputs": [
        {
          "name": "",
          "type": "uint256"
        }
      ],
      "payable": false,
      "stateMutability": "nonpayable",
      "type": "function"
    }
  ],
  "bytecode": "0x608060405234801561001057600080fd5b50604051611bb8380380611bb883398101806040528101908080519060200190929190805182019291905050506000826000806101000a81548173ffffffffffffffffffffffffffffffffffffffff021916908373ffffffffffffffffffffffffffffffffffffffff160217905550600090505b8151811015610205576001828281518110151561009d57fe5b9060200190602002015190806001815401808255809150509060018203906000526020600020016000909192909190916101000a81548173ffffffffffffffffffffffffffffffffffffffff021916908373ffffffffffffffffffffffffffffffffffffffff16021790555050606060405190810160405280651cae8c13e000815260200160008152602001600073ffffffffffffffffffffffffffffffffffffffff1681525060026000848481518110151561015657fe5b9060200190602002015173ffffffffffffffffffffffffffffffffffffffff1673ffffffffffffffffffffffffffffffffffffffff168152602001908152602001600020600082015181600001556020820151816001015560408201518160020160006101000a81548173ffffffffffffffffffffffffffffffffffffffff021916908373ffffffffffffffffffffffffffffffffffffffff1602179055509050508080600101915050610084565b5050506119a1806102176000396000f300608060405260043610610099576000357c0100000000000000000000000000000000000000000000000000000000900463ffffffff16806323d44dee1461009e578063245d1314146100f55780633f31281a14610138578063587cde1e1461017b57806364bc82c31461020c578063943e170d14610279578063a39fac12146102a4578063e71e592b14610310578063f77c4791146103b9575b600080fd5b3480156100aa57600080fd5b506100df600480360381019080803573ffffffffffffffffffffffffffffffffffffffff169060200190929190505050610410565b6040518082815260200191505060405180910390f35b34801561010157600080fd5b50610136600480360381019080803573ffffffffffffffffffffffffffffffffffffffff16906020019092919050505061060e565b005b34801561014457600080fd5b50610179600480360381019080803573ffffffffffffffffffffffffffffffffffffffff1690602001909291905050506107fa565b005b34801561018757600080fd5b506101bc600480360381019080803573ffffffffffffffffffffffffffffffffffffffff169060200190929190505050610aae565b604051808481526020018381526020018273ffffffffffffffffffffffffffffffffffffffff1673ffffffffffffffffffffffffffffffffffffffff168152602001935050505060405180910390f35b34801561021857600080fd5b5061023760048036038101908080359060200190929190505050610af8565b604051808273ffffffffffffffffffffffffffffffffffffffff1673ffffffffffffffffffffffffffffffffffffffff16815260200191505060405180910390f35b34801561028557600080fd5b5061028e610b36565b6040518082815260200191505060405180910390f35b3480156102b057600080fd5b506102b9610c74565b6040518080602001828103825283818151815260200191508051906020019060200280838360005b838110156102fc5780820151818401526020810190506102e1565b505050509050019250505060405180910390f35b34801561031c57600080fd5b506103b76004803603810190808035906020019082018035906020019080806020026020016040519081016040528093929190818152602001838360200280828437820191505050505050919291929080359060200190820180359060200190808060200260200160405190810160405280939291908181526020018383602002808284378201915050505050509192919290505050610d02565b005b3480156103c557600080fd5b506103ce610f19565b604051808273ffffffffffffffffffffffffffffffffffffffff1673ffffffffffffffffffffffffffffffffffffffff16815260200191505060405180910390f35b600080600090505b6001805490508110156106085761051b6002600060018481548110151561043b57fe5b9060005260206000200160009054906101000a900473ffffffffffffffffffffffffffffffffffffffff1673ffffffffffffffffffffffffffffffffffffffff1673ffffffffffffffffffffffffffffffffffffffff1681526020019081526020016000206060604051908101604052908160008201548152602001600182015481526020016002820160009054906101000a900473ffffffffffffffffffffffffffffffffffffffff1673ffffffffffffffffffffffffffffffffffffffff1673ffffffffffffffffffffffffffffffffffffffff1681525050610f3e565b80156105ed57508273ffffffffffffffffffffffffffffffffffffffff166002600060018481548110151561054c57fe5b9060005260206000200160009054906101000a900473ffffffffffffffffffffffffffffffffffffffff1673ffffffffffffffffffffffffffffffffffffffff1673ffffffffffffffffffffffffffffffffffffffff16815260200190815260200160002060020160009054906101000a900473ffffffffffffffffffffffffffffffffffffffff1673ffffffffffffffffffffffffffffffffffffffff16145b156105fb5781806001019250505b8080600101915050610418565b50919050565b6106cb600260003373ffffffffffffffffffffffffffffffffffffffff1673ffffffffffffffffffffffffffffffffffffffff1681526020019081526020016000206060604051908101604052908160008201548152602001600182015481526020016002820160009054906101000a900473ffffffffffffffffffffffffffffffffffffffff1673ffffffffffffffffffffffffffffffffffffffff1673ffffffffffffffffffffffffffffffffffffffff1681525050610f77565b156107f75780600260003373ffffffffffffffffffffffffffffffffffffffff1673ffffffffffffffffffffffffffffffffffffffff16815260200190815260200160002060020160006101000a81548173ffffffffffffffffffffffffffffffffffffffff021916908373ffffffffffffffffffffffffffffffffffffffff16021790555061075a816107fa565b7fea8e84a162c4602ea0c61acf85fa1242db8ce550e7a448d613e3c7dff2f067933360405180806020018373ffffffffffffffffffffffffffffffffffffffff1673ffffffffffffffffffffffffffffffffffffffff1681526020018281038252600e8152602001807f7369676e557365724368616e67650000000000000000000000000000000000008152506020019250505060405180910390a15b50565b6000610804610b36565b61080d83610410565b101515610aaa576000809054906101000a900473ffffffffffffffffffffffffffffffffffffffff1673ffffffffffffffffffffffffffffffffffffffff1663c998e9dd836040518263ffffffff167c0100000000000000000000000000000000000000000000000000000000028152600401808273ffffffffffffffffffffffffffffffffffffffff1673ffffffffffffffffffffffffffffffffffffffff168152602001915050600060405180830381600087803b1580156108d057600080fd5b505af11580156108e4573d6000803e3d6000fd5b50505050600090505b600180549050811015610aa957426002600060018481548110151561090e57fe5b9060005260206000200160009054906101000a900473ffffffffffffffffffffffffffffffffffffffff1673ffffffffffffffffffffffffffffffffffffffff1673ffffffffffffffffffffffffffffffffffffffff1681526020019081526020016000206001015411156109fe57426002600060018481548110151561099157fe5b9060005260206000200160009054906101000a900473ffffffffffffffffffffffffffffffffffffffff1673ffffffffffffffffffffffffffffffffffffffff1673ffffffffffffffffffffffffffffffffffffffff168152602001908152602001600020600001819055505b60026000600183815481101515610a1157fe5b9060005260206000200160009054906101000a900473ffffffffffffffffffffffffffffffffffffffff1673ffffffffffffffffffffffffffffffffffffffff1673ffffffffffffffffffffffffffffffffffffffff16815260200190815260200160002060020160006101000a81549073ffffffffffffffffffffffffffffffffffffffff021916905580806001019150506108ed565b5b5050565b60026020528060005260406000206000915090508060000154908060010154908060020160009054906101000a900473ffffffffffffffffffffffffffffffffffffffff16905083565b600181815481101515610b0757fe5b906000526020600020016000915054906101000a900473ffffffffffffffffffffffffffffffffffffffff1681565b60008060008090505b600180549050811015610c5d57610c4260026000600184815481101515610b6257fe5b9060005260206000200160009054906101000a900473ffffffffffffffffffffffffffffffffffffffff1673ffffffffffffffffffffffffffffffffffffffff1673ffffffffffffffffffffffffffffffffffffffff1681526020019081526020016000206060604051908101604052908160008201548152602001600182015481526020016002820160009054906101000a900473ffffffffffffffffffffffffffffffffffffffff1673ffffffffffffffffffffffffffffffffffffffff1673ffffffffffffffffffffffffffffffffffffffff1681525050610f88565b15610c505781806001019250505b8080600101915050610b3f565b6001600283811515610c6b57fe5b04019250505090565b60606001805480602002602001604051908101604052809291908181526020018280548015610cf857602002820191906000526020600020905b8160009054906101000a900473ffffffffffffffffffffffffffffffffffffffff1673ffffffffffffffffffffffffffffffffffffffff1681526020019060010190808311610cae575b5050505050905090565b6000806000809054906101000a900473ffffffffffffffffffffffffffffffffffffffff1673ffffffffffffffffffffffffffffffffffffffff16631c1c22896040518163ffffffff167c0100000000000000000000000000000000000000000000000000000000028152600401602060405180830381600087803b158015610d8a57600080fd5b505af1158015610d9e573d6000803e3d6000fd5b505050506040513d6020811015610db457600080fd5b810190808051906020019092919050505073ffffffffffffffffffffffffffffffffffffffff163373ffffffffffffffffffffffffffffffffffffffff161415610f1357600091505b8351821015610e3357610e268483815181101515610e1757fe5b90602001906020020151610fbb565b8180600101925050610dfd565b610e3b611269565b600090505b8251811015610e7657610e698382815181101515610e5a57fe5b90602001906020020151611555565b8080600101915050610e40565b7fea8e84a162c4602ea0c61acf85fa1242db8ce550e7a448d613e3c7dff2f067933360405180806020018373ffffffffffffffffffffffffffffffffffffffff1673ffffffffffffffffffffffffffffffffffffffff168152602001828103825260108152602001807f7265706c61636544656c656761746573000000000000000000000000000000008152506020019250505060405180910390a15b50505050565b6000809054906101000a900473ffffffffffffffffffffffffffffffffffffffff1681565b6000610f4982610f88565b8015610f7057506000826040015173ffffffffffffffffffffffffffffffffffffffff1614155b9050919050565b600080826000015114159050919050565b6000610f9382610f77565b8015610fa55750610fa38261182a565b155b8015610fb45750816020015142115b9050919050565b426000809054906101000a900473ffffffffffffffffffffffffffffffffffffffff1673ffffffffffffffffffffffffffffffffffffffff16631ec9f7b56040518163ffffffff167c0100000000000000000000000000000000000000000000000000000000028152600401602060405180830381600087803b15801561104157600080fd5b505af1158015611055573d6000803e3d6000fd5b505050506040513d602081101561106b57600080fd5b810190808051906020019092919050505001600260008373ffffffffffffffffffffffffffffffffffffffff1673ffffffffffffffffffffffffffffffffffffffff1681526020019081526020016000206000015411156112665742600260008373ffffffffffffffffffffffffffffffffffffffff1673ffffffffffffffffffffffffffffffffffffffff16815260200190815260200160002060010154111561115c5742600260008373ffffffffffffffffffffffffffffffffffffffff1673ffffffffffffffffffffffffffffffffffffffff16815260200190815260200160002060000181905550611265565b426000809054906101000a900473ffffffffffffffffffffffffffffffffffffffff1673ffffffffffffffffffffffffffffffffffffffff16631ec9f7b56040518163ffffffff167c0100000000000000000000000000000000000000000000000000000000028152600401602060405180830381600087803b1580156111e257600080fd5b505af11580156111f6573d6000803e3d6000fd5b505050506040513d602081101561120c57600080fd5b810190808051906020019092919050505001600260008373ffffffffffffffffffffffffffffffffffffffff1673ffffffffffffffffffffffffffffffffffffffff168152602001908152602001600020600001819055505b5b50565b60008090505b600180549050811015611552576113726002600060018481548110151561129257fe5b9060005260206000200160009054906101000a900473ffffffffffffffffffffffffffffffffffffffff1673ffffffffffffffffffffffffffffffffffffffff1673ffffffffffffffffffffffffffffffffffffffff1681526020019081526020016000206060604051908101604052908160008201548152602001600182015481526020016002820160009054906101000a900473ffffffffffffffffffffffffffffffffffffffff1673ffffffffffffffffffffffffffffffffffffffff1673ffffffffffffffffffffffffffffffffffffffff168152505061182a565b156115445760006002600060018481548110151561138c57fe5b9060005260206000200160009054906101000a900473ffffffffffffffffffffffffffffffffffffffff1673ffffffffffffffffffffffffffffffffffffffff1673ffffffffffffffffffffffffffffffffffffffff1681526020019081526020016000206000018190555060006002600060018481548110151561140d57fe5b9060005260206000200160009054906101000a900473ffffffffffffffffffffffffffffffffffffffff1673ffffffffffffffffffffffffffffffffffffffff1673ffffffffffffffffffffffffffffffffffffffff1681526020019081526020016000206001018190555060006002600060018481548110151561148e57fe5b9060005260206000200160009054906101000a900473ffffffffffffffffffffffffffffffffffffffff1673ffffffffffffffffffffffffffffffffffffffff1673ffffffffffffffffffffffffffffffffffffffff16815260200190815260200160002060020160006101000a81548173ffffffffffffffffffffffffffffffffffffffff021916908373ffffffffffffffffffffffffffffffffffffffff16021790555061153f81600161183b565b61154d565b80806001019150505b61126f565b50565b611612600260008373ffffffffffffffffffffffffffffffffffffffff1673ffffffffffffffffffffffffffffffffffffffff1681526020019081526020016000206060604051908101604052908160008201548152602001600182015481526020016002820160009054906101000a900473ffffffffffffffffffffffffffffffffffffffff1673ffffffffffffffffffffffffffffffffffffffff1673ffffffffffffffffffffffffffffffffffffffff1681525050610f77565b1580156116245750600f600180549050105b1561182757606060405190810160405280651cae8c13e00081526020016000809054906101000a900473ffffffffffffffffffffffffffffffffffffffff1673ffffffffffffffffffffffffffffffffffffffff16631ec9f7b56040518163ffffffff167c0100000000000000000000000000000000000000000000000000000000028152600401602060405180830381600087803b1580156116c657600080fd5b505af11580156116da573d6000803e3d6000fd5b505050506040513d60208110156116f057600080fd5b810190808051906020019092919050505042018152602001600073ffffffffffffffffffffffffffffffffffffffff16815250600260008373ffffffffffffffffffffffffffffffffffffffff1673ffffffffffffffffffffffffffffffffffffffff168152602001908152602001600020600082015181600001556020820151816001015560408201518160020160006101000a81548173ffffffffffffffffffffffffffffffffffffffff021916908373ffffffffffffffffffffffffffffffffffffffff16021790555090505060018190806001815401808255809150509060018203906000526020600020016000909192909190916101000a81548173ffffffffffffffffffffffffffffffffffffffff021916908373ffffffffffffffffffffffffffffffffffffffff160217905550505b50565b600042826000015111159050919050565b600060018280549050039050818181548110151561185557fe5b9060005260206000200160009054906101000a900473ffffffffffffffffffffffffffffffffffffffff16828481548110151561188e57fe5b9060005260206000200160006101000a81548173ffffffffffffffffffffffffffffffffffffffff021916908373ffffffffffffffffffffffffffffffffffffffff16021790555081818154811015156118e457fe5b9060005260206000200160006101000a81549073ffffffffffffffffffffffffffffffffffffffff021916905580828161191e9190611924565b50505050565b81548183558181111561194b5781836000526020600020918201910161194a9190611950565b5b505050565b61197291905b8082111561196e576000816000905550600101611956565b5090565b905600a165627a7a72305820648ff5de1c7b141e4df4f6c1c41e44dac40af5cb4afe2c10c9e93c1ce63280650029",
  "source": "pragma solidity ^0.4.8;\nimport \"./RecoverableController.sol\";\n\ncontract RecoveryQuorum {\n  RecoverableController public controller;\n\n  address[] public delegateAddresses; // needed for iteration of mapping\n  mapping (address => Delegate) public delegates;\n  struct Delegate{\n    uint deletedAfter; // delegate exists if not 0\n    uint pendingUntil;\n    address proposedUserKey;\n  }\n\n  event RecoveryEvent(string action, address initiatedBy);\n\n  modifier onlyUserKey(){ if (msg.sender == controller.userKey()) _; }\n\n  function RecoveryQuorum(address _controller, address[] _delegates){\n    controller = RecoverableController(_controller);\n    for(uint i = 0; i < _delegates.length; i++){\n      delegateAddresses.push(_delegates[i]);\n      delegates[_delegates[i]] = Delegate({proposedUserKey: 0x0, pendingUntil: 0, deletedAfter: 31536000000000});\n    }\n  }\n  function signUserChange(address proposedUserKey) {\n    if(delegateRecordExists(delegates[msg.sender])) {\n      delegates[msg.sender].proposedUserKey = proposedUserKey;\n      changeUserKey(proposedUserKey);\n      RecoveryEvent(\"signUserChange\", msg.sender);\n    }\n  }\n  function changeUserKey(address newUserKey) {\n    if(collectedSignatures(newUserKey) >= neededSignatures()){\n      controller.changeUserKeyFromRecovery(newUserKey);\n      for(uint i = 0 ; i < delegateAddresses.length ; i++){\n        //remove any pending delegates after a recovery\n        if(delegates[delegateAddresses[i]].pendingUntil > now){ \n            delegates[delegateAddresses[i]].deletedAfter = now;\n        }\n        delete delegates[delegateAddresses[i]].proposedUserKey;\n      }\n    }\n  }\n\n  function replaceDelegates(address[] delegatesToRemove, address[] delegatesToAdd) onlyUserKey{\n    for(uint i = 0 ; i < delegatesToRemove.length ; i++){\n      removeDelegate(delegatesToRemove[i]);\n    }\n    garbageCollect();\n    for(uint j = 0 ; j < delegatesToAdd.length ; j++){\n      addDelegate(delegatesToAdd[j]);\n    }\n    RecoveryEvent(\"replaceDelegates\", msg.sender);\n  }\n  function collectedSignatures(address _proposedUserKey) returns (uint signatures){\n    for(uint i = 0 ; i < delegateAddresses.length ; i++){\n      if (delegateHasValidSignature(delegates[delegateAddresses[i]]) && delegates[delegateAddresses[i]].proposedUserKey == _proposedUserKey){\n        signatures++;\n      }\n    }\n  }\n\n  function getAddresses() constant returns (address[]){ return delegateAddresses; }\n\n  function neededSignatures() returns (uint){\n    uint currentDelegateCount; //always 0 at this point\n    for(uint i = 0 ; i < delegateAddresses.length ; i++){\n      if(delegateIsCurrent(delegates[delegateAddresses[i]])){ currentDelegateCount++; }\n    }\n    return currentDelegateCount/2 + 1;\n  }\n  function addDelegate(address delegate) private {\n    if(!delegateRecordExists(delegates[delegate]) && delegateAddresses.length < 15) {\n      delegates[delegate] = Delegate({proposedUserKey: 0x0, pendingUntil: now + controller.longTimeLock(), deletedAfter: 31536000000000});\n      delegateAddresses.push(delegate);\n    }\n  }\n  function removeDelegate(address delegate) private {\n    if(delegates[delegate].deletedAfter > controller.longTimeLock() + now){ \n      //remove right away if they are still pending\n      if(delegates[delegate].pendingUntil > now){ \n        delegates[delegate].deletedAfter = now;\n      } else{\n        delegates[delegate].deletedAfter = controller.longTimeLock() + now;\n      }\n    }\n  }\n  function removeAddress(uint i, address[] storage arry) private{\n    uint lengthMinusOne = arry.length - 1;\n    arry[i] = arry[lengthMinusOne];\n    delete arry[lengthMinusOne];\n    arry.length = lengthMinusOne;\n  }\n  function garbageCollect() private{\n    uint i = 0;\n    while(i < delegateAddresses.length){\n      if(delegateIsDeleted(delegates[delegateAddresses[i]])){\n        delegates[delegateAddresses[i]].deletedAfter = 0;\n        delegates[delegateAddresses[i]].pendingUntil = 0;\n        delegates[delegateAddresses[i]].proposedUserKey = 0;\n        removeAddress(i, delegateAddresses);\n      }else{i++;}\n    }\n  }\n  function delegateRecordExists(Delegate d) private returns (bool){\n      return d.deletedAfter != 0;\n  }\n  function delegateIsDeleted(Delegate d) private returns (bool){\n      return d.deletedAfter <= now; //doesnt check record existence\n  }\n  function delegateIsCurrent(Delegate d) private returns (bool){\n      return delegateRecordExists(d) && !delegateIsDeleted(d) && now > d.pendingUntil;\n  }\n  function delegateHasValidSignature(Delegate d) private returns (bool){\n      return delegateIsCurrent(d) && d.proposedUserKey != 0x0;\n  }\n}\n",
  "sourcePath": "/Users/xyli/Code/JavaScript/uport/uport-test/uport-contracts/contracts/RecoveryQuorum.sol",
  "compiler": {
    "name": "solc",
    "version": "0.4.24+commit.e67f0147.Emscripten.clang"
  },
  "schemaVersion": "2.0.1",
  "updatedAt": "2018-10-10T10:09:28.657Z"
}