{
  "contractName": "TestRegistry",
  "abi": [
    {
      "constant": true,
      "inputs": [
        {
          "name": "",
          "type": "address"
        }
      ],
      "name": "registry",
      "outputs": [
        {
          "name": "",
          "type": "uint256"
        }
      ],
      "payable": false,
      "stateMutability": "view",
      "type": "function"
    },
    {
      "constant": false,
      "inputs": [
        {
          "name": "x",
          "type": "uint256"
        }
      ],
      "name": "register",
      "outputs": [],
      "payable": false,
      "stateMutability": "nonpayable",
      "type": "function"
    },
    {
      "constant": false,
      "inputs": [],
      "name": "testThrow",
      "outputs": [],
      "payable": false,
      "stateMutability": "nonpayable",
      "type": "function"
    }
  ],
  "bytecode": "0x608060405234801561001057600080fd5b50610186806100206000396000f300608060405260043610610057576000357c0100000000000000000000000000000000000000000000000000000000900463ffffffff168063038defd71461005c57806350bff6bf146100b3578063f207564e146100ca575b600080fd5b34801561006857600080fd5b5061009d600480360381019080803573ffffffffffffffffffffffffffffffffffffffff1690602001909291905050506100f7565b6040518082815260200191505060405180910390f35b3480156100bf57600080fd5b506100c861010f565b005b3480156100d657600080fd5b506100f560048036038101908080359060200190929190505050610114565b005b60006020528060005260406000206000915090505481565b600080fd5b806000803373ffffffffffffffffffffffffffffffffffffffff1673ffffffffffffffffffffffffffffffffffffffff16815260200190815260200160002081905550505600a165627a7a72305820ca1cca0a0a147790ab673c3f32f31a05918228943e431e0410a00d66b1ea037e0029",
  "source": "pragma solidity ^0.4.8;\n\n// This contract is only used for testing purposes.\ncontract TestRegistry {\n\n  mapping(address => uint) public registry;\n\n  function register(uint x) {\n    registry[msg.sender] = x;\n  }\n\n  function testThrow() {\n      throw;\n  }\n}\n",
  "sourcePath": "/Users/xyli/Code/JavaScript/uport/uport-test/uport-contracts/contracts/misc/TestRegistry.sol",
  "compiler": {
    "name": "solc",
    "version": "0.4.24+commit.e67f0147.Emscripten.clang"
  },
  "schemaVersion": "2.0.1",
  "updatedAt": "2018-10-10T10:09:28.663Z"
}