{
  "contractName": "UportRegistry",
  "abi": [
    {
      "constant": true,
      "inputs": [],
      "name": "version",
      "outputs": [
        {
          "name": "",
          "type": "uint256"
        }
      ],
      "payable": false,
      "stateMutability": "view",
      "type": "function"
    },
    {
      "constant": true,
      "inputs": [],
      "name": "previousPublishedVersion",
      "outputs": [
        {
          "name": "",
          "type": "address"
        }
      ],
      "payable": false,
      "stateMutability": "view",
      "type": "function"
    },
    {
      "constant": true,
      "inputs": [
        {
          "name": "",
          "type": "bytes32"
        },
        {
          "name": "",
          "type": "address"
        },
        {
          "name": "",
          "type": "address"
        }
      ],
      "name": "registry",
      "outputs": [
        {
          "name": "",
          "type": "bytes32"
        }
      ],
      "payable": false,
      "stateMutability": "view",
      "type": "function"
    },
    {
      "inputs": [
        {
          "name": "_previousPublishedVersion",
          "type": "address"
        }
      ],
      "payable": false,
      "stateMutability": "nonpayable",
      "type": "constructor"
    },
    {
      "anonymous": false,
      "inputs": [
        {
          "indexed": true,
          "name": "registrationIdentifier",
          "type": "bytes32"
        },
        {
          "indexed": true,
          "name": "issuer",
          "type": "address"
        },
        {
          "indexed": true,
          "name": "subject",
          "type": "address"
        },
        {
          "indexed": false,
          "name": "updatedAt",
          "type": "uint256"
        }
      ],
      "name": "Set",
      "type": "event"
    },
    {
      "constant": false,
      "inputs": [
        {
          "name": "registrationIdentifier",
          "type": "bytes32"
        },
        {
          "name": "subject",
          "type": "address"
        },
        {
          "name": "value",
          "type": "bytes32"
        }
      ],
      "name": "set",
      "outputs": [],
      "payable": false,
      "stateMutability": "nonpayable",
      "type": "function"
    },
    {
      "constant": true,
      "inputs": [
        {
          "name": "registrationIdentifier",
          "type": "bytes32"
        },
        {
          "name": "issuer",
          "type": "address"
        },
        {
          "name": "subject",
          "type": "address"
        }
      ],
      "name": "get",
      "outputs": [
        {
          "name": "",
          "type": "bytes32"
        }
      ],
      "payable": false,
      "stateMutability": "view",
      "type": "function"
    }
  ],
  "bytecode": "0x608060405234801561001057600080fd5b5060405160208061053183398101806040528101908080519060200190929190505050600360008190555080600160006101000a81548173ffffffffffffffffffffffffffffffffffffffff021916908373ffffffffffffffffffffffffffffffffffffffff160217905550506104a58061008c6000396000f30060806040526004361061006d576000357c0100000000000000000000000000000000000000000000000000000000900463ffffffff168063447885f01461007257806354fd4d50146100ff5780636104464f1461012a57806381895b7314610181578063d79d8e6c1461020e575b600080fd5b34801561007e57600080fd5b506100e16004803603810190808035600019169060200190929190803573ffffffffffffffffffffffffffffffffffffffff169060200190929190803573ffffffffffffffffffffffffffffffffffffffff16906020019092919050505061026d565b60405180826000191660001916815260200191505060405180910390f35b34801561010b57600080fd5b5061011461030e565b6040518082815260200191505060405180910390f35b34801561013657600080fd5b5061013f610314565b604051808273ffffffffffffffffffffffffffffffffffffffff1673ffffffffffffffffffffffffffffffffffffffff16815260200191505060405180910390f35b34801561018d57600080fd5b506101f06004803603810190808035600019169060200190929190803573ffffffffffffffffffffffffffffffffffffffff169060200190929190803573ffffffffffffffffffffffffffffffffffffffff16906020019092919050505061033a565b60405180826000191660001916815260200191505060405180910390f35b34801561021a57600080fd5b5061026b6004803603810190808035600019169060200190929190803573ffffffffffffffffffffffffffffffffffffffff169060200190929190803560001916906020019092919050505061036c565b005b600060026000856000191660001916815260200190815260200160002060008473ffffffffffffffffffffffffffffffffffffffff1673ffffffffffffffffffffffffffffffffffffffff16815260200190815260200160002060008373ffffffffffffffffffffffffffffffffffffffff1673ffffffffffffffffffffffffffffffffffffffff1681526020019081526020016000205490509392505050565b60005481565b600160009054906101000a900473ffffffffffffffffffffffffffffffffffffffff1681565b600260205282600052604060002060205281600052604060002060205280600052604060002060009250925050505481565b8173ffffffffffffffffffffffffffffffffffffffff163373ffffffffffffffffffffffffffffffffffffffff1684600019167feaf626c2c2ec7b7bd4328ffad20cd8bf2e631858020a5a4a0b4ea02276af3e91426040518082815260200191505060405180910390a48060026000856000191660001916815260200190815260200160002060003373ffffffffffffffffffffffffffffffffffffffff1673ffffffffffffffffffffffffffffffffffffffff16815260200190815260200160002060008473ffffffffffffffffffffffffffffffffffffffff1673ffffffffffffffffffffffffffffffffffffffff16815260200190815260200160002081600019169055505050505600a165627a7a7230582021a6e3f9e1538f37e391d1ebebd076e6a5618db86e375a7daf1b638f4bcdb35d0029",
  "source": "pragma solidity ^0.4.8;\n\ncontract UportRegistry{\n  uint public version;\n  address public previousPublishedVersion;\n  mapping(bytes32 => mapping(address => mapping(address => bytes32))) public registry;\n\n  function UportRegistry(address _previousPublishedVersion) {\n    version = 3;\n    previousPublishedVersion = _previousPublishedVersion;\n  }\n\n  event Set(\n    bytes32 indexed registrationIdentifier,\n    address indexed issuer,\n    address indexed subject,\n    uint updatedAt);\n\n  //create or update\n  function set(bytes32 registrationIdentifier, address subject, bytes32 value){\n      Set(registrationIdentifier, msg.sender, subject, now);\n      registry[registrationIdentifier][msg.sender][subject] = value;\n  }\n\n  function get(bytes32 registrationIdentifier, address issuer, address subject) constant returns(bytes32){\n      return registry[registrationIdentifier][issuer][subject];\n  }\n}\n",
  "sourcePath": "/Users/xyli/Code/JavaScript/uport/uport-test/uport-contracts/contracts/UportRegistry.sol",
  "compiler": {
    "name": "solc",
    "version": "0.4.24+commit.e67f0147.Emscripten.clang"
  },
  "schemaVersion": "2.0.1",
  "updatedAt": "2018-10-10T10:34:28.725Z"
}